:10000000000C0020E904000029050000290500007B
:1000100000000000000000000000000000000000E0
:1000200000000000000000000000000029050000A2
:100030000000000000000000290500002905000064
:1000400029050000290500002905000029050000F8
:1000500029050000290500002905000029050000E8
:1000600029050000290500002905000029050000D8
:1000700029050000290500002905000029050000C8
:1000800029050000290500002905000029050000B8
:1000900029050000290500002905000029050000A8
:1000A0002905000029050000290500002905000098
:1000B0002905000029050000290500002905000088
:10040000FFFFFFFFFFFFFFFFFFFFFFFFFEFFFFFFFD
:1004100010B5064C2378002B07D1054B002B02D0DA
:10042000044800E000BF0123237010BDA4FCFF1F9F
:10043000000000004C64000008B5084B002B03D0FE
:100440000748084900E000BF07480368002B03D0B5
:10045000064B002B00D0984708BDC04600000000A6
:100460004C640000A8FCFF1FA0FCFF1F0000000060
:10047000164B002B00D1144B9D46402292029A1A33
:10048000924600218B460F461348144A121A02F076
:1004900097F80F4B002B00D098470E4B002B00D045
:1004A00098470020002104000D000D48002802D0CC
:1004B0000C4800E000BF02F05DF82000290002F0C7
:1004C00029F802F041F8C04600000800000C0020A6
:1004D0000000000000000000A4FCFF1FD0FCFF1F74
:1004E000000000000000000072B6094809490A4AED
:1004F00002600A6002F01CF862B60849084A094B1B
:100500009B1A03DD043BC858D050FBDCFFF7B0FF5B
:1005100080E100E080E200E0FFFFFFFF7464000084
:1005200000FCFF1FA4FCFF1F004800472905000036
:10053000002934D00123002210B488422CD3012496
:100540002407A14204D2814202D209011B01F8E72B
:10055000E400A14204D2814202D249005B00F8E7E4
:10056000884201D3401A1A434C08A04202D3001B10
:100570005C0822438C08A04202D3001B9C08224343
:10058000CC08A04202D3001BDC082243002803D081
:100590001B0901D00909E3E7101C10BC70470028B3
:1005A00001D00020C04307B4024802A140180290C5
:1005B00003BDC046190000000029F0D003B5FFF7C5
:1005C000B9FF0EBC4243891A1847C0467047C0465F
:1005D00002B4714649084900095C49008E4402BCD6
:1005E0007047C046002941D010B4041C4C40A446BA
:1005F00001230022002900D54942002800D54042AD
:1006000088422CD301242407A14204D2814202D281
:1006100009011B01F8E7E400A14204D2814202D2A1
:1006200049005B00F8E7884201D3401A1A434C089E
:10063000A04202D3001B5C0822438C08A04202D3D4
:10064000001B9C082243CC08A04202D3001BDC08FC
:100650002243002803D01B0901D00909E3E7101C3D
:100660006446002C00D5404210BC7047002806D0DC
:1006700003DB0020C043400801E08020000607B4EF
:10068000024802A14018029003BDC04641FFFFFF8F
:100690000029EBD003B5FFF7A7FF0EBC4243891A30
:1006A0001847C0468446101C62468C46191C634697
:1006B00000E0C0461FB500F061FF002801D4002112
:1006C000C8421FBD10B500F091FE4042013010BD80
:1006D00010B500F053FF002801DB002010BD012001
:1006E00010BDC04610B500F049FF002801DD002014
:1006F00010BD012010BDC04610B500F0C1FE00289D
:1007000001DC002010BD012010BDC04610B500F076
:10071000B7FE002801DA002010BD012010BDC04640
:1007200038B50E4B0C4A041C0D1CFFF7EFFF0028D8
:1007300004D1201C291C01F063FD38BD074B064A7B
:10074000201C291C01F028FA01F05AFD80231B0609
:10075000C018F2E7C046C046000000000000E041BB
:10076000F8B55F46564644464D46F0B40C034D007E
:10077000CE0F610A440F2143C4001803804658007D
:10078000400D8246D80F84464046400A530F03432B
:10079000D0006D0D371C83465246664500D1A4E05B
:1007A000AF1A002F00DC09E1002A3BD1184300D02A
:1007B000EAE0630700D187E00F232340042B00D138
:1007C00082E0221DA242A4416442802309191B0435
:1007D0000B40371C141C002B00D17CE0CE4B0135A4
:1007E0009D4200D105E1CD4BE4081940480749027C
:1007F00004430B0B002000211B031A0B0B0D6D058E
:100800001B0513436A08C64DFF071D4015436D00C5
:100810006D08291C3943201C3CBC90469946A246D1
:10082000AB46F8BDBC488542C3D0802000040343DA
:10083000382F00DDF0E01F2F00DD24E12020C01B59
:100840001A1C814682405846F84002439446584656
:100850004A469040421E9041FB40624602431F1CA4
:10086000A21A9442A4416442C91B091B141C0B0226
:100870009FD549024F0A002F00D1C8E0381C01F073
:10088000F1FD021C083A1F2A00DDB5E02821091AF3
:10089000201C9740C84007439440954200DDB2E0D9
:1008A000551B691C1F2900DDDCE01F22551B3B1C6A
:1008B000221CAB40CA40AC40651EAC411343CF4044
:1008C0001C43391C002574E780231B040B40371C94
:1008D000002B00D082E7904B4807E4080443C90886
:1008E0009D4248D009030B0B84E7AA1A9446002ABC
:1008F00000DC98E05046002852D08748854200D15D
:1009000057E78020000403436246382A00DDFCE0FC
:100910001F2A00DD4AE120226046101A1A1C82407C
:100920008246914658466246D0404A460243904627
:10093000584652469040421E90414246024360460D
:10094000C3401219A242A441644259180919141C47
:10095000080200D42DE7704B01359D4200D122E101
:100960006E4B60081940012323401C1C0443CB0735
:100970001C4349081DE7231C0B433AD080231B036B
:100980000B431B031B0B35E7013F002F65D1584676
:10099000221A9442A4416442C91A091B141C66E736
:1009A0005846184300D104E701225242944460465D
:1009B000002800D0C5E058460219C3E7002F73D1C4
:1009C000681C4005400D012800DCDEE05A46A21AF2
:1009D0009442BF41C81A7F42C71B380200D489E045
:1009E0005A46141BA3459241591A52428F1A664621
:1009F00041E700230024FDE6271C28388740002417
:100A0000954200DC4CE74549AD1A3940D1E6201C3F
:100A100001F028FD203034E75A461A43531E9A410C
:100A2000D2B200271CE7002A00D0DCE0681C420597
:100A3000520D012A00DC8DE0374DA84200D1F3E0D1
:100A40005D462A19A242A441644259180919CC07EB
:100A5000520814434908051CABE62F48854200D0D4
:100A6000E6E6A6E62B1C1F3B3A1CDA40131C2029A5
:100A70006CD03F22551BAF403C43601E84411C4359
:100A80000021002595E6381C20381A1CC240101C95
:100A9000202F5DD04022D71BBB405A461A43531E1D
:100AA0009A4102430027DBE6002D3BD01A4DAA45B0
:100AB00000D193E080252D047F422943382F00DDAB
:100AC000ACE01F2F00DD29E12025ED1B081C261CB2
:100AD000A840FE40AC400643651EAC413443F9409B
:100AE0005D462C1BA34592415B1A5242991A55460A
:100AF0006646BCE6131C3B43141C002B00D0BAE630
:100B00000027002100250024E5E65A461A43531E1B
:100B10009A41D2B2002314E7FF070000FFFF7FFFD6
:100B2000FFFF0F800D1C254358D0FF43002F51D1EC
:100B3000041BA3459241591A5242891A55466646EA
:100B400095E69648854200D0DEE632E6002793E738
:100B50000023A2E7081C2043002D00D0C4E0002899
:100B600000D1F7E05846184300D122E65846021952
:100B7000A242A441644259180919141C0A0200D463
:100B800017E6874B0125194013E6081C2043002D6A
:100B900039D1002871D15946194303D0191C5C463C
:100BA000664606E600270021002494E660462038C9
:100BB0001A1CC24060469146202800D1ACE0402279
:100BC000121A93405A461A43531E9A414B461A43EF
:100BD0000023B6E6714DAA4500D06FE7191C5C46AC
:100BE00055466646E5E5002D22D10D1C254377D0FC
:100BF000D543002D71D15C445C4592415918524255
:100C000089185546A4E600284DD15946194300D10C
:100C100094E0191C5C466646604DCAE50C43611EB3
:100C20008C41E4B200215BE7051C0021002452E660
:100C30005A4DAA4554D05542802210040143382D04
:100C400000DD81E01F2D00DD92E02022501B0A1CF8
:100C500084468240201CE84002439046624694400D
:100C6000601E844142461443E9405C445C45924125
:100C7000CB185242991855466AE65846184300D197
:100C800097E55846271ABC429241C81A5242801A28
:100C9000020266D55846041BA3459241591A524296
:100CA000891A664685E55846184333D04807E40854
:100CB00004438020C9080003014208D0DD08054232
:100CC00005D15946CA085C071443291C6646630FC0
:100CD000C9001943E400314D6BE5304A9245AED16D
:100CE000191C5C46554664E5002836D05846184322
:100CF00010D080254807E408C9082D030443294281
:100D0000E5D0D8082842E2D15D46EA085C071443E2
:100D1000011CDCE7214D4CE5002353E73D1C203D41
:100D20000A1CEA40151C202F34D04026F71BB9407E
:100D30000C43611E8C412C430021D1E68021002709
:100D4000C903164D0024C6E50C43611E8C41E4B274
:100D500000218AE7191C5C462BE5191C5C460F4DE7
:100D600027E5031C3B4300D11CE7011C3C1C20E58C
:100D70002020404240190A1CC2409046202D0BD032
:100D80004020451BA9400C43611E8C4145462C4325
:100D900000216AE70021CBE70021F4E7FF0700000C
:100DA000FFFF7FFFF0B5564644465F464D46F0B420
:100DB0001F1C0B031B0B98464B0087B0041C81467D
:100DC0005B0DC80F161C9A460090002B51D06A4B41
:100DD0009A4531D08022414652030A43630FD20024
:100DE0001A43664B90460025E20091469A4400243F
:100DF00002953B031B0B9B46FD0F7B00311C5B0DDB
:100E0000019560D05C4A934254D0802158464903F2
:100E10000143720FC9001143584A8B469B18F100D9
:100E20000020009A04436A4003920F2C00D9ADE0E1
:100E3000534EA4003459A746404604436ED10021C6
:100E400002250824884689460295D2E7009C02982C
:100E5000C34649460194022864D0032800D1ABE27E
:100E6000012800D038E2019A002402400025A14662
:100E700060E0434623434AD04046002800D1C0E109
:100E800001F0F0FA031E272B00DDB3E128210D1A33
:100E9000211C083B4246E9409A400D1C1543221C88
:100EA0009A40A8469146374B00251B1A9A460024C3
:100EB00002959EE75A4616430320002EB1D1B34651
:100EC00000210220ADE75A4632431BD05B46002B7F
:100ED00000D18AE1584601F0C5FA272800DD7DE1FE
:100EE0002822171A011C321C08395B46FA408B4035
:100EF000171C1F43331C8B40BB46191C214B1B1A6C
:100F000000208EE70027BB460021012089E7002052
:100F1000012504248046814602956AE703250C24B6
:100F2000029566E7019C0394039D01222A40002458
:100F3000114DA146002000212403260B0C0D240591
:100F4000114B34432D0523402B435B005B08D20734
:100F5000191C4846114307B03CBC90469946A2462E
:100F6000AB46F0BD0022802424039146024DE1E708
:100F700000240025A146DDE7FF07000001FCFFFF7C
:100F8000106100000DFCFFFFFFFF0F805546ED1ABA
:100F90000495D84500D953E100D14EE1049C0025C9
:100FA000013C4E4604944746A946584603020C0E9F
:100FB0001C430902250C23041B0C0091381C291C1E
:100FC0000193FFF7B5FA019983464143381C8A46DD
:100FD000291CFFF7F1FA330C090419438A450CD98F
:100FE0005B460919013B8C4200D947E18A4500D88C
:100FF00044E102225242934409195346CB1A181C69
:10100000291C9846FFF794FA071C0198291C78437D
:1010100082464046FFF7D0FA36040B04360C3343C1
:101020009A4509D91B197A1E9C4200D924E19A4598
:1010300000D821E1023F1B195E4632041743380CE9
:10104000BB46009E009F51463F0C32045B1A594636
:10105000BA46120C0F043F0C904651467A434F4358
:101060004146414356467043CF19160CBE19B14252
:1010700002D980277F02C019310C12043604120CE9
:101080004018B618834200D2C4E000D1BEE0191A5D
:101090004846861BB145BF417F42CF1BA74200D1C6
:1010A00013E1291C381CFFF743FA019902904143D0
:1010B000381C8946291CFFF77FFA330C09041943B1
:1010C00089450CD9029B0919013B8C4200D9FFE0EC
:1010D000894500D8FCE0029F0919023F02974F465C
:1010E000CF1B381C291C0597FFF722FA071C019813
:1010F000291C784381460598FFF75EFA36040904F7
:10110000360C0E43B14509D936197B1EB44200D9BD
:10111000E0E0B14500D8DDE0023F3619029D4946C6
:10112000761A290439430B0457460A0C1B0C404617
:101130004546584355437B437A43EB18070CDB196C
:101140009D4202D980256D0252191D0C00041B041A
:10115000000C52191B18964235D300D1FCE0012334
:101160001943049E994FF519002D00DCA1E04807B2
:1011700009D00F230B40042B05D00B1D8B42894156
:1011800049428B44191C5A46D20107D5904B5C4604
:10119000049E80271C40FF00A346F5198D4B9D42FD
:1011A0007ADD039C0122224000248B4DA146C1E63A
:1011B00080242403474627424CD13C432403240B7C
:1011C000009A854DB6E63619481EB4425ED9011C18
:1011D0009642C4D1009E9E42C1D1C2E7031C283B67
:1011E000311C99408B46002188E6301C01F03AF909
:1011F000203072E6283B211C994000228846914607
:1012000051E6201C01F02EF920303BE60021B145CB
:1012100000D33DE7009F5A46B944B945BF417F42DC
:101220003F19FB18013A9C421ED2984200D97EE039
:1012300000D1B5E0191A93462AE7894500D8ADE6F2
:101240004846464642467708D3074608C0071E432D
:101250008146AAE65846204212D1044324032A1CA0
:10126000240B89465C4D65E6A342E3D1009F4F45C0
:10127000DBD9211A93460BE7171CDDE69B46BCE63B
:101280003C432403240B009A534D53E6B24259D8F1
:1012900000D18AE0011C62E75F46C9087B07039E14
:1012A0000B437C026D0501229946240B6D0D3240E3
:1012B00040E64A4B049FDB1B382B10DD039C0122C8
:1012C000224000240025A14634E60121494248E796
:1012D000029304E71F1C21E7019C039441E71F2BA5
:1012E00040DC3F48049F0C1C3A1858469140DC40B3
:1012F000904020430A1C511E8A41011C11435A464A
:10130000DA40131C480709D00F220A40042A05D0EE
:101310000A1D8A42894149425B18111C1A0234D5C0
:10132000039C0122224000240125A14602E6009FE1
:1013300002214942B9448B44B945894149420919BE
:10134000CB18A4E6009D881E6900A942AD416D42FC
:101350002C19361900913AE7002B00D033E700240E
:10136000009437E71F4A049C5D46121BD5402A1C97
:10137000202B1FD01C4E5F46A3199F403B1C1943D6
:101380004B1E994111430023BCE75A07C9080A4381
:10139000039F91465B0201221C0B3A400025C9E5E0
:1013A0004E45C4D89346002172E6009F9F42C9D3A0
:1013B000011C0FE70023E2E7802424035F463C433F
:1013C0002403240B019A8946034DB3E5FF03000073
:1013D000FFFFFFFEFE070000FF07000002FCFFFF0B
:1013E0001E040000E2FBFFFF3E040000F0B55F4674
:1013F00056464D464446F0B40D1C041C8046E80F8A
:10140000814618030F03000B3F0B83B084461B4833
:10141000009749005E00DF0F490D9246760DBB46EE
:1014200081420CD01548864210D00120B14215D01F
:1014300003B03CBC90469946A246AB46F0BD009F27
:1014400001202743F4D10D488642EED16046024385
:101450000120002AECD10120B142E9D1009B634573
:10146000E6D1D045E4D1D94506D00029E0D11C43CE
:10147000201C441EA041DBE70020D9E7FF07000045
:10148000F0B55F4656464D464446F0B4CD0FDE0FEC
:10149000AC461D032D0BB146374E0F034C00AB4637
:1014A0005D0080463F0B640D92466D0DB44232D014
:1014B000314EB54235D0002C0ED138434142414126
:1014C000081C002D0BD0002919D1CC452DD0654624
:1014D00068420123184318E0002DF6D1281C594614
:1014E0000A4353425341002806D1002BEDD06346F6
:1014F00058420123184308E00020002B05D14A463A
:10150000504250414042012318433CBC904699460A
:10151000A246AB46F0BD3E1C0643C9D00220404265
:10152000F3E75E461643C6D0F8E7AC4207DC0BDAB9
:10153000614648424841404201231843E5E7664678
:10154000704201231843E0E75F450AD80ED000201F
:101550005F45DAD26546684268414042012318433C
:10156000D3E76246504201231843CEE7D045F8D86E
:101570000020D045EED3C8E7FF070000F0B556467F
:101580004D4644465F46F0B40D1C83B0041C0190E8
:10159000E80F814618030F03000B3F0B84463548C4
:1015A000009749005E00DF0F490D9246760DB84660
:1015B000814234D02F48864236D0002918D0002EE0
:1015C0001FD1341C67463A4353425341002C1FD06D
:1015D0000020002B05D14246504250414042012399
:1015E000184303B03CBC90469946A246AB46F0BDBA
:1015F0000098044360426041041C002EE2D00028A1
:10160000E9D1C14515D04F46784201231843E8E798
:10161000002BF6D04B46584201231843E1E7009FC8
:1016200002202743DDD1C5E7674602201743D8D102
:10163000C3E7B14204DD4A46504201231843D0E7D4
:10164000B14207DB00986045E4D80AD0009F002033
:101650006745C6D24F46784278414042012318433D
:10166000BFE7019A5245D5D8019A00205245F1D3DF
:10167000B7E7C046FF070000F0B5564644465F4650
:101680004D46F0B41F1C0B031B0B9A464B0087B052
:10169000041C80465B0DC80F161C02938146002B6C
:1016A00068D0694B0299994232D080225346520346
:1016B0001A43D200630F1A439246644AE000891825
:1016C00080460291002400253B031B0B9B467800BB
:1016D000FB0F321C400D039300D175E05A4B98422A
:1016E00069D08022594652030A43730FD2001A432D
:1016F000564B9346C018F200002303994E467140A2
:101700001C430F2C00D9A9E0514EA4003459A74620
:1017100053461C4300D087E00025AA46A84608246B
:101720000225D1E74946022D6CD0032D00D117E2E6
:10173000012D00D058E10D40EDB20024A946002350
:10174000A0460020002125030A0D1C052D0B1205C3
:10175000404B2A43134023435B004C465B08E2079F
:10176000191C4046114307B03CBC90469946A2461E
:10177000AB46F0BD5346234350D05346002B00D117
:1017800084E1504600F06EFE031E272B00DD76E15B
:1017900028210D1A211C083B5246E9409A400D1C95
:1017A0001543221C9A40AA4690462B4B00241B1A34
:1017B0000293002588E75B461E430323002E9CD13D
:1017C000B3460022022398E75B46334321D05846B4
:1017D000002800D14EE100F045FE272800DD42E15F
:1017E00028210F1A021C311C083A5B46F94093402D
:1017F0000F1C1F43331C9340BB461A1C164B181A70
:1018000000237AE701230B4000249946A0460E4BA3
:1018100097E70027BB46002201236EE7002104243E
:101820008A46884601254FE70C2403254CE700250E
:101830008024A9462403A846034B82E7DA46904653
:1018400003991D1C6FE7C046FF07000001FCFFFF66
:1018500050610000FFFF0F800DFCFFFF029F160C80
:10186000381804904046070C0004000C1204120CB7
:10187000031C5343041C3D1C7443554398463B1CB6
:1018800073436419A44644460293230C63449D4267
:1018900004D9029D802464022D1902951D0C039524
:1018A00045462C041B04240C1C1905945C46230C8F
:1018B000051C58432404240C8446381C60436543AB
:1018C0005F438146CC44280C6044BB46814502D925
:1018D00080277F02BB442D04070C2D0C0004401907
:1018E0005546BC462F04E3448446280C3D0C2F1C6F
:1018F0005743B8462F1C77434243B94647463F0CEF
:101900009144BA46D14446434A4502D98022520204
:10191000B6184F463A0CB6183A0447463F043F0CF7
:10192000B8462F1C67435D434443584365190190F3
:10193000380C2D184244B846AC4204D90198802393
:101940005B02C0180190039C029F201C6044C019D8
:101950006045A44147466442A4462B043C04994692
:10196000240C4C44A046D8448018C246E24490421D
:101970009241574652429146F219E245BF417F4299
:101980004B46BC46D845BF41D4187F4263461F43EF
:101990002D0C7F19B24292414C45AD4152426D42ED
:1019A0001543019E7D19AB19E20D5B02059F1343A0
:1019B00042023A439A46531E9A41C30D101C1843E3
:1019C0006402204380465046C0010DD545460122A1
:1019D0005646049C6B082A401A43F30701341A4305
:1019E000760804949046B246049E634FF319002B88
:1019F00061DD404640070BD00F2244462240042AB6
:101A000006D04246043242458041404282449046DC
:101A10005546ED0107D5594B5646049F80201E4080
:101A2000C000B2463B18564A934200DDEAE64446FF
:101A30005546E2086807104301226C025B050A4024
:101A40008046240B5B0D91467BE6DA4690461D1CD2
:101A500069E680242403574627421CD13C432403D3
:101A6000240B484B6DE6031C283B311C99408B46E8
:101A70000022C3E6301C00F0F5FC2030ADE6283B28
:101A8000211C994000228A4690468EE6201C00F0D8
:101A9000E9FC203078E65846204207D104430399F8
:101AA0002403240B89469046364B4AE63C432403E4
:101AB000240B344B45E6344B049E9B1B382B06DD30
:101AC00001230B4000249946A046002339E61F2B32
:101AD00025DC049C2D4D46466019524644468640FE
:101AE000DC4082405746301C2243DF40441EA04168
:101AF00002433B1C540709D00F201040042805D096
:101B0000101D9042924152429B18021C1D021AD590
:101B100001230B4000249946A046012311E61C48EE
:101B2000049C5546001BC540281C202B16D0194E7E
:101B30005746A21997403A1C43461A43531E9A41EE
:101B400002430023D6E758075B02D2081C0B01238F
:101B50000B401043994680460023F2E50022EBE754
:101B60008024240350460123044319402403240BFA
:101B70008946044BE5E5C046FF030000FFFFFFFE7A
:101B8000FE070000FF07000002FCFFFF1E0400002C
:101B9000E2FBFFFF3E040000F8B55F4656464446B0
:101BA0004D46F0B40C034D00CF0F610A440F2143A2
:101BB000C4001803DE0F8046B44646465800760A35
:101BC000530F3343D600D14A6D0DBA46400DB3468C
:101BD000904200D1F5E06246012672409446674586
:101BE00000D1ABE02F1A002F00DC11E100283ED11C
:101BF0005846184300D0F1E0600700D197E00F236A
:101C00002340042B00D122E1221DA242A4416442C0
:101C1000802309191B04012750460B400740141C60
:101C2000002B00D179E0B94B01359D4200D10BE189
:101C3000B74BE40819404807490204430B0B002046
:101C400000211B031A0B0B0D6D051B0513436A08BE
:101C5000B04DFF071D4015436D006D08291C394329
:101C6000201C3CBC90469946A246AB46F8BDA7480E
:101C70008542C1D0802000040343382F00DDFDE001
:101C80001F2F00DD31E12020C01B1A1C5E46824060
:101C9000FE40324394465A468240101C421E9041F8
:101CA000FB40624602431F1CA21A9442A4416442B4
:101CB000C91B091B141C0A029ED549024F0A002F9A
:101CC00000D1D6E0381C00F0CDFB021C083A1F2AD8
:101CD00000DDC3E02821231C091A9740CB401F4395
:101CE0009440954200DDC0E0551B691C1F2900DDB2
:101CF000EAE01F22551B3B1C221CAB40CA40AC40F3
:101D0000651EAC411343CF401C43391C002573E7CB
:101D100080217E4D0027C90300247C4B4807E4083E
:101D20000443C9089D4250D009030B0B87E7802369
:101D30001B04012752460B40174071E72A1A9446AC
:101D4000002A00DCA1E0002854D07048854200D170
:101D500052E78020000403436046382800DD0EE18E
:101D60001F2800DD57E162462020801A1E1C864095
:101D7000B1465E46D6404A4632435E46864090466D
:101D8000301C421E9041424602436046C340121935
:101D9000A242A441644259180919141C080200D433
:101DA0002AE75A4B01359D4200D131E1584B60087A
:101DB0001940012323401C1C0443CB071C43490842
:101DC0001AE71E4300D00AE705E7231C0B433BD06C
:101DD00080231B030B431B031B0B30E7013F002F2A
:101DE0006DD15E46A21B9442A4416442C91A091BEC
:101DF000141C60E75846184300D1FDE601267642E0
:101E0000B4446046002800D0D0E05E463219BFE7F7
:101E1000002F00D080E0681C4005400D012800DC48
:101E2000E8E05A46A21A9442BF41C81A7F42C71B33
:101E30003E0200D498E05846041BA3459241591A2B
:101E400052428F1AE2463AE700230024F7E6802345
:101E50001B04012756460B403740E1E6271C283873
:101E600087400024954200DC3EE72949AD1A3940FD
:101E7000C2E6201C00F0F6FA203026E75A461A4344
:101E8000531E9A41D2B200270EE7002A00D0DEE0AE
:101E9000681C4605760D012E00DC90E01B4DA84223
:101EA00000D1F5E05E463219A242A44164425918BD
:101EB0000919CC07520814434908051C9CE613482D
:101EC000854200D0D9E697E62B1C1F3B3E1CDE4026
:101ED000331C20296FD03F22551BAF403C43601E6E
:101EE00084411C430021002586E6381C20381E1C36
:101EF000C640301C202F60D04022D71BBB405A4622
:101F00001A43531E9A4102430027CDE6FF07000003
:101F1000FFFF7FFFFFFF0F80002D37D0B64DA84297
:101F200000D18FE080252D047F422943382F00DD2A
:101F3000A8E01F2F00DD24E12025ED1B0E1CAE4084
:101F4000B046261CFE404246AC401643651EAC41DE
:101F50003443F9405A46141BA34592415B1A52423E
:101F6000991A051CE246A6E6131C3B43141C002BE1
:101F700000D0A4E60027002100250024CDE65A4623
:101F80001A43531E9A41D2B2002300E70D1C254389
:101F900058D0FF43002F51D15A46141BA3459241FC
:101FA000591A5242891A051CE24684E69248854233
:101FB00000D0D1E620E6002790E700239FE7081C29
:101FC0002043002D00D0C2E0002800D1EFE05846A9
:101FD000184300D110E658460219A242A4416442B7
:101FE00059180919141C0A0200D405E6834B01256F
:101FF000194001E6081C2043002D38D100286FD17C
:102000005946194303D0191C5C46E246F4E5002703
:102010000021002481E6604620381A1CC240664632
:10202000101C202E00D1AAE04022921B93405A4659
:102030001A43531E9A4102430023A8E66E4DA8425C
:1020400000D073E7191C5C46051CE246D4E5002D60
:1020500022D10D1C254376D0D543002D70D15C4490
:102060005C459241591852428918051C96E6002891
:102070004CD15946194300D14AE6191C5C46E24648
:102080005D4DB9E50C43611E8C41E4B2002161E76E
:10209000051C0021002440E6574DA84253D055426C
:1020A000802216043143382D7BDC1F2D00DD8CE0AF
:1020B0002022561B0A1CB446B240261CEE40324376
:1020C000904662469440661EB44142461443E9403D
:1020D0005C445C459241CB1852429918051C5DE660
:1020E0005846184300D187E55E46A71BBC42924183
:1020F000C81A5242801A060260D55846041BA345EE
:102100009241591A5242891AE24675E558461843D7
:1021100033D04807E40804438020C9080003014283
:1021200008D0DD08054205D15946CA085C071443AA
:10213000291CE246630FC9001943E4002E4D5BE5FC
:102140002D4A9042AFD1191C5C46051C54E500286D
:1021500030D05846184310D080254807E408C908F5
:102160002D0304432942E5D0D8082842E2D15D4638
:10217000EA085C071443011CDCE71F4D3CE5002323
:1021800055E73D1C203D0E1CEE40351C202F2ED067
:102190004026F71BB9400C43611E8C412C430021A3
:1021A000D8E60C43611E8C41E4B2002190E7191C73
:1021B0005C4621E5191C5C460F4D1DE5031C3B43A5
:1021C00000D124E7011C3C1C16E520267642761936
:1021D0000A1CF2409046202D0BD04026751BA940CA
:1021E0000C43611E8C4145462C43002170E70021C1
:1021F000D1E70021F4E7C046FF070000FFFF7FFFA3
:1022000070B50B1C124C09030E0B5900021C490D32
:10221000DD0F0020A14211DD0E4881420FDC80203D
:10222000400306430C48401A1F280BDD0B4A521A84
:10223000D640321C5042002D00D1101C70BD084BFE
:10224000E818FBE7074BC240C9188E403243F1E75C
:10225000FE0300001D04000033040000130400000E
:10226000FFFFFF7FEDFBFFFFF8B5041E31D0C70F66
:1022700000D04442201C00F0F5F8184D2D1A0A2811
:1022800019DD0B38844024036D05240B6D0D3A1CB9
:102290000026002000210B0D2403240B1B052343E3
:1022A0000F4C2D051C402C4364006408D307211CEF
:1022B000301C1943F8BD061C1536231CB3401E1CE8
:1022C0000B23181AC44024036D05240B6D0D3A1C12
:1022D000DFE70022002500240026DAE71E040000C4
:1022E000FFFF0F8010B5041E28D000F0BBF8154A80
:1022F000121A0A2815DD0B38844024035205240BDA
:10230000520D0023002000212403181C0B0D240B68
:102310001B0523430C4C12051C4014436400610848
:1023200010BD031C1533211C99400B1C0B21081AEE
:10233000C44024035205240B520DE3E7002200247D
:102340000023DFE71E040000FFFF0F80F0B54B0005
:102350000D03420F5B0D6D0A15435A1C5205CC0F3D
:10236000C600520D012A27DD394FDA19FE2A1ADC80
:10237000002A35DD8001ED00431E98412843760F89
:102380003043430704D00F230340042B00D0043014
:102390008021C904014027D00132FF2A1DD08301CA
:1023A0005B0AD1B201E0FF2100235802C905400AAF
:1023B000E40708432043F0BD002B06D1354311D17B
:1023C0000021002043025B0AEFE72E43EBD0802080
:1023D000ED0080042843FF22D3E7FF210023E4E738
:1023E00017320DDA05200022C008D1B2FF2AE9D148
:1023F0000028D9D08023DB0303435B025B0AD4E7C8
:102400008022144912041543C91A1F290DDC124AEF
:10241000371C9B18281C9F4098403B1C5A1E934118
:102420001843CE4030430022ABE70C4F2A1CFF1A62
:10243000FA40171C202909D0094A98188540281C01
:102440003043461EB041384300229AE70020F7E7A8
:1024500080FCFFFF9E03000082FCFFFF7E03000064
:10246000A2FCFFFF1C2101231B04984201D3000C96
:1024700010391B0A984201D3000A08391B099842F7
:1024800001D30009043902A2105C40187047C0460D
:10249000040302020101010100000000000000002D
:1024A00080B500AF194BA02252009A61184B184A10
:1024B000526840210A435A60154B154A526940211F
:1024C0000A435A61114BA0225200DA61104B104AA4
:1024D000526880210A435A600D4B0D4A526980218F
:1024E0000A435A61094BA02252009A62084B084ADB
:1024F00052688021C9000A435A60054B044A526958
:102500008021C9000A435A61BD4680BD00A0044035
:1025100040F00F4080B500AFFFF7C2FF034B034A06
:10252000926840210A439A60F8E7C04640F00F40A5
:1025300080B500AF034A88235B010021D150BD461E
:1025400080BDC04600700440084B10B5041C002B31
:1025500002D0002100E000BF054B1868836A002B01
:1025600000D09847201C03F0D1FDC04600000000B9
:102570009461000070B50E4B0E4D0024ED1AAD10A5
:102580001E1CAC4204D0A300F35898470134F8E76E
:1025900003F05CFF084B094D0024ED1AAD101E1C22
:1025A000AC4204D0A300F35898470134F8E770BD5B
:1025B0006C6400006C6400006C64000070640000D7
:1025C000031C8218934202D019700133FAE7704756
:1025D000F0B58BB0161C1C1C129904D58022120673
:1025E000A4182D2300E00023149F0B7020239F4389
:1025F000462F08D03A1C453A51424A4110990223CD
:102600008918109100E003230093139B109A029302
:1026100008AB039309AB01920493321C231C00F016
:10262000ABFE051C472F02D11199C9072CD5109973
:1026300069180791462F14D12B78302B0CD1301C00
:10264000211C164B144AFEF73DF8002804D1109ABD
:10265000012313999B1A0B60139A07991368C918E1
:102660000791301C211C0D4B0B4AFEF72BF800285C
:1026700001D0079A0992099B07998B4204D25A1CF0
:10268000099230221A70F6E7099B281C5A1B159BE9
:102690001A600BB0F0BDC046000000000000000052
:1026A000F0B52B2385B0051C0C1C0270861C00297C
:1026B00001DA4C422D236B70092C1EDD6F460E375C
:1026C000201C0A210197FDF7E3FF30313970201CEF
:1026D0000A21FDF787FF013F041E092CF0DC019B56
:1026E0003034013B1C706A460F32301C934209D2D1
:1026F0001A78013332700136F5E73023E41833706D
:10270000B01C7470401B05B0F0BD0000000000005C
:10271000F0B593B00C1C0A920B93189E051C01F0A7
:1027200007FC00680C9002F025F900231093336831
:102730000722073393431A1C08320D90277E18682E
:1027400059683260A064E16402F0B2F8012819D13E
:10275000A06CE16CB94BB84AFDF7BAFF002803D072
:10276000231C2D2243331A70472F01D8B44E00E0AA
:10277000B44E032320682361042398430021206082
:10278000099191E0A06CE16C02F092F823680028B6
:102790000CD1472F01D8AC4E00E0AC4E0322226191
:1027A000042293430022236009927DE06268561C54
:1027B00001D1062207E02021381C8843472803D195
:1027C000002A01D1012262608022D20013432360DB
:1027D00001936B463B3302930FAB6168039310ABDD
:1027E00005930023009106930497A26CE36C281CC8
:1027F000FFF7EEFE20233A1C061C9A430F99472A46
:1028000007D1CB1C02DB606881422EDD023FFFB2A4
:1028100001E0652F12D8201C01393A1C50300F916D
:10282000FFF73EFF109B0990C2182261012B02DCCA
:102830002168C9072FD5013222612CE0662F15D1FE
:102840006368002908DD2161002B02D12268D207CC
:102850001DD50133C91811E0002B03D120680122D6
:10286000104200D09A1C226111E06727109A914211
:1028700006DB22682161D20709D50131216106E01A
:102880000123002901DC02235B1AD31823610F9B6B
:102890000020A36509906B463B331B78002B03D0C7
:1028A000231C2D2243331A700B99281C009111AA66
:1028B000211C0A9B00F058F9013002D1012040424E
:1028C0004CE12268530504D4281C0A99321C236960
:1028D00067E0652F00D8E0E0A06CE16C574B564AEA
:1028E000FDF7F0FE00282BD0281C0A99584A012336
:1028F0000B9EB0470130E1D00F9F1098874207DB55
:102900002168C90704D42768BF0700D50EE113E189
:10291000281C0A990C9A0D9B0B9EB0470130CDD014
:102920000026109B013B9E42EDDA221C281C0A99CE
:102930001A3201230B9FB8470130BFD00136F0E7B0
:102940000F98002830DC281C0A99414A01230B9F6C
:10295000B8470130B2D00F98002805D1109900294E
:1029600002D12268D207CED5281C0A990C9A0D9B59
:102970000B9FB8470130A1D000270F980997099FF6
:1029800043420A99281C9F4209DA221C1A32012369
:102990000B9FB847013091D0099F0137EDE7109B9D
:1029A000321C0B9EB047B5E0109FA36D08979F4265
:1029B00000DD0893089F002F01DC002714E0281C8D
:1029C0000A99321C089B0B9FB8470130F5D175E777
:1029D000221C281C0A991A3201230B9FB847013088
:1029E00000D16BE7099F01370997089FA36DFA4350
:1029F000D2173A40099F9A1A9742E9DB0F9810992B
:102A0000F318099388420EDB2268D2070BD4109B7F
:102A10000F9FF618DB1B099FF61B9E4200DD1E1C54
:102A2000002E17DC1FE0281C0A990C9A0D9B0B9FA7
:102A3000B8470130EBD141E7000000000000000082
:102A4000986100009C610000A0610000A46100008A
:102A5000A8610000281C0A99099A331C0B9FB847EB
:102A6000013000D12AE700270BE0221C281C0A991C
:102A70001A3201230B9FB847013000D11EE7099F8E
:102A80000137099710980F99F343DB17099F421AF2
:102A90003340D31A9F42E8DB35E71098012802DC67
:102AA00001231A423AD0281C0A99321C01230B9F99
:102AB000B847013000D101E7281C0A990C9A0D9BF8
:102AC000B847013000D1F9E6A06CE16C254B244AEF
:102AD000FDF7F8FD002801D0002610E0109B721CC5
:102AE000013B281C0A991CE0221C281C0A991A3256
:102AF00001230B9FB847013000D1DFE60136109B60
:102B0000013B9E42F0DB221C281C0A995032099B93
:102B10000B9FB847013000D0F5E6CFE60A99281C94
:102B2000321C0B9EB0470130EDD1C7E60026E068AD
:102B30001199431A9E4205DB119BE06898420DDA19
:102B4000181C0BE0221C281C0A99193201230B9F28
:102B5000B847013000D1B1E60136E8E713B0F0BD67
:102B60000000000000000000F7B5151C01930A6981
:102B70008B68061C0C1C934200DA131C221C2B6071
:102B800043321278002A01D001332B60206880067E
:102B900002D52B6802332B60216806270F401FD017
:102BA000231C43331B785A1E9341226892061FD57B
:102BB000E11840313020C870211C5A1C4531097879
:102BC000A21840320233D17012E0221C301C01994D
:102BD00019320123089FB847013011D0009F0137F7
:102BE0000097E0682968009F431A9F42EDDBD7E712
:102BF000221C301C01994332089FB847013002D192
:102C00000120404223E0206806212B68E268014051
:102C10000025042903D1D51AEB43DB171D40A26818
:102C200023699A4201DDD31AED1800270097009F0F
:102C3000AF420BDA221C301C01991A320123089F83
:102C4000B8470130DCD0009F0137EFE70020FEBD20
:102C5000F0B50D1C8BB04335069205900793049593
:102C60000B7E0C1C109A6E2B00D1A7E011D8632BA1
:102C700022D009D8002B00D1B0E0582B00D0C0E002
:102C800045310B707B4D4EE0642B1CD0692B1AD064
:102C9000B7E0732B00D1A5E009D86F2B29D0702B9A
:102CA00000D0AEE00E68202333430B6036E0752B76
:102CB0001FD0782B32D0A4E013680D1C191D4235AB
:102CC00011601B689FE0216813680E0603D5191D6B
:102CD00011601E6805E04806F9D5191D1160002134
:102CE0005E5E644B002E3BDA049D2D2276422A70F4
:102CF00036E0216813680E0603D5191D11601E68A1
:102D000004E04806F9D5191D1E881160594B227E32
:102D1000039308276F2A1ED00A271CE0231C782162
:102D20004533554D197011682368081D03951060CF
:102D30001E0601D50E6802E05806FBD50E88D9079D
:102D400002D52022134323601027002E03D12268CE
:102D500020239A432260231C002243331A7001E08F
:102D600003930A276368A360002B03DB2568042212
:102D700095432560002E02D1049D002B0ED0049DAA
:102D8000301C391CFDF718FC0398013D435C301CD6
:102D90002B70391CFDF7CCFB061EF1D1082F09D191
:102DA0002168C90706D5626823699A4202DC013DA1
:102DB00030232B70049E731B23612AE0086813687C
:102DC0004969050604D5181D10601B68196005E0E7
:102DD0004606F8D5181D10601B6819800023236172
:102DE000049D16E01368191D11601D68281C01F070
:102DF000C1FD63682061984200D923612069606049
:102E000004E0251C42352B7001232361049E00231E
:102E10003370079E05980096211C09AA069BFFF7B0
:102E2000A3FE013002D10120404221E02A1C059876
:102E300006992369079DA8470130F4D02668B60794
:102E400005D4099BE068984212DA181C10E00025AE
:102E5000E0680999431A9D42F3DA221C0598069905
:102E600019320123079EB0470130DCD00135EFE76E
:102E70000BB0F0BDAA610000BB610000F0B58BB0E3
:102E800006938B6804900E1C171C0020AE22591E5E
:102E900003905200914205D95E3BFF3B03935E23B2
:102EA000FF33B3603168F023DB00321C00251C3295
:102EB0000B4333600592141C019509950895029502
:102EC0000795B268002A00D1E3E038680378492BFF
:102ED00077D018D8392B0DD8312B42D22D2B49D091
:102EE00002D82B2B46D0D4E02E2B00D18DE0302BF6
:102EF00025D0CEE0452B00D190E0462B79D0412B58
:102F000000D0C6E058E0652B00D187E00AD8542BEA
:102F100073D002D84E2B35D0BBE0592B71D0612B2A
:102F20004AD0B6E06E2B2DD004D8662B61D0692B29
:102F300047D0AEE0742B60D0792B62D0A9E0316825
:102F4000C8050ED58023994331600299039B013156
:102F50000291002B00D184E0013B01320393B26067
:102F60007FE001984219002A00D092E0B64A316809
:102F70000A4005E0326880210A4200D189E08A4394
:102F800032606CE0019A002A0ED1029800280ED11E
:102F90003268E021C900101C0840884207D1AB49C3
:102FA0000A403260012159E0019A022A53D0012DD2
:102FB0001CD0042D1AD06CE00198012869D102219F
:102FC0004CE0002D0ED10299002965D13268E02134
:102FD000C900101C0840884262D19C4901250A4062
:102FE00032603CE0032D01D0052D52D10135EDB208
:102FF00035E0022D4DD1032531E0062D49D10725BD
:103000002DE0072D45D1082529E03268900540D5EF
:103010008F490A4002993260079120E03268A0206F
:10302000C00080211040C900884204D00A4230D03C
:103030000298002834D0910504D402980799099485
:10304000401A089081490A40C02149000A43326071
:103050000022029203E00320019000E0019123701E
:103060000134B368013BB3603369013333617B687A
:10307000013B7B60002B03DD3B6801333B6020E7B5
:10308000C0235B00F3580498391C9847002800D1EE
:1030900017E7029A002A03D030686E4B0340336072
:1030A000019B013B012B11D805998C420BD9BE2302
:1030B000013C5B00F358217804983A1C9847336927
:1030C000013B3361F0E701220192B9E06B1E062B50
:1030D00029D8022D18D9019401982B1BC318DBB2F3
:1030E000032B0DD9019B0498013B01931978BE2352
:1030F0005B00F3583A1C98473369013B3361EBE7B7
:10310000033DEDB2641B0EE005998C42DBD9BE2372
:10311000013C5B00F358217804983A1C98473369C6
:10312000013B3361F0E73368DA052BD558050ED53E
:1031300005998C42C7D9BE23013C5B00F358217826
:1031400004983A1C98473369013B3361F0E73369CF
:10315000651E2978013B336165290CD045290AD0C9
:10316000BE235B00F35804983A1C98473369A51EA8
:10317000013B29783361BE235B00F35804983A1C65
:1031800098472C1C326810231A40019256D12270A5
:103190003368C022D2001A408023DB009A4206D155
:1031A00002980799431A5A42002B0DD118E0089A49
:1031B000002A15D00999019A0A230131049802F0D6
:1031C00033FA089B099CC21A7020FF3033189C42C6
:1031D00002D3B72149007418201C1F4901F0A8FB35
:1031E00000220498059901F0F7FB3268041C069848
:1031F0000D1C0368910702D51A1D026004E05007F8
:1032000006D506991A1D0A601B681C605D6011E0F6
:1032100006981A1D0260291C201C1F6801F048FB3B
:10322000002802D101F080FB03E0201C291CFFF7DD
:103230008DF83860F3680133F36001E000210191FB
:1032400001980BB0F0BDC0467FFEFFFF7FF8FFFF87
:103250007FFDFFFFFFFEFFFFCC610000F0B589B0EE
:1032600006910B690169051C002699427FDB069CCB
:103270005F1E143404940499BC000919021C0B68E5
:10328000143205911419191C013120680392FDF7BD
:103290004FF90290B04238D00499039B8C460196B6
:1032A0000796624604329446043A40CA0299B0B284
:1032B0004843310C029E019A71431018020C5118B8
:1032C0000A0C01921A6880B296B2079A89B2B618AF
:1032D000301A1E68320C521A06149219111480B258
:1032E0001204059E1043079101C36645D9D2216897
:1032F00000290AD1039E043CB44201D82F6104E0A6
:1033000021680029FAD1013FF4E7281C069901F051
:103310007BF800282ADB029C039A0134049B029468
:103320000024116840CB88B200191468B1B2401A69
:10333000360C210C891B041409190C1480B20904E1
:10334000059E014302C29E42EBD2039CBB00E318E0
:103350001E68002E0AD1039C043BA34201D82F61B2
:1033600004E01E68002EFAD1013FF4E7029E301CF3
:1033700009B0F0BD00000000F0B5446A9BB00790B2
:10338000239D04920593002C08D1102000F0D4FD59
:1033900007994862446084600460C460079C636A63
:1033A000196800290AD05B6801229A404B608A6044
:1033B000201C00F00CFE636A00221A6005980028A9
:1033C00005DA01232B6043005B08059301E000232D
:1033D0002B60059EBE4B321C1A409A4218D1BD4B41
:1033E000229C049D2360002D01D1360301D0BA48F0
:1033F00000E0BA48249C002C01D100F093FDC27873
:10340000C31C002A00D00533249D2B6000F08AFDE8
:10341000049C059DA54BA44A201C291CFDF752F9CC
:10342000071E0CD0229C249D01232360002D01D176
:1034300000F075FDAA482860013800F073FD19AB53
:10344000009318AB019307982B1C221C01F0D2F8B3
:1034500073000A905B0D09D0201CA24C2A03120BAA
:10346000211C1143A04A16979E181BE0189B199C1B
:103470001D199E4B9D4209DB9D49049A9D4B68187E
:10348000C2405B1B101C9E40304304E09A48049BE2
:10349000401B8340181CFEF725FF984C6E1E01252B
:1034A00009191695824A834BFEF776FB824A834BB5
:1034B000FEF7E2F8824A834BFDF752F9041C301CF8
:1034C0000D1CFEF7D1FE804A804BFEF7D5F8021C9A
:1034D0000B1C201C291CFDF743F9041C0D1CFEF7D6
:1034E0008FFE724B704A0690291C201CFDF7F0F8E5
:1034F00000280DD00698FEF7B7FE0B1C021C291CF5
:10350000201CFDF7DFF8069C43424341E41A069471
:10351000069C01251395162C10D8794AE300D31880
:1035200018685968049A059BFDF7E6F8002804D04E
:10353000013C00250694139500E013901898002490
:10354000861B351C0294013D099504D5099C002574
:10355000644202940995069C002C06DB099D129496
:103560002D19002409950D9407E0069C029D2D1B42
:103570000295654200240D951294209D0124092D89
:1035800024D8052D02DD043D209500242098023822
:10359000032823D8FDF71CF8060E0204012502E0DB
:1035A000012508E000251095219D002D1FDD0C95BB
:1035B000089509E0002510950698219D2D180C9579
:1035C00001350895002D18DD2B1C17E063420025FE
:1035D0000C93089320951094122306E001256B426A
:1035E00010950C93089300251223219506E00125E0
:1035F0000C9508952B1C219500E0012307980022CB
:10360000456A6A600422101C14306968984203D825
:10361000013169605200F6E7079800F0A0FC2860CD
:10362000079D6B6A089D1B680B930E2D00D987E1DF
:10363000002C00D184E1049C059D14941595069DF1
:10364000002D61DD2A1C0F231A402D49D2008A1853
:10365000146855680E940F95069D2A4C2F1102256B
:10366000F80617D51F4014981599226A636AFDF76A
:1036700099FB0325049005910CE0F90708D50E98F5
:103680000F9922686368FDF7F7FF0E900F910135DF
:103690007F100834002FF0D1049805990E9A0F9BE3
:1036A000FDF780FB4EE0C046000000000000000077
:1036B000000000000000F83F61436F63A787D23F1E
:1036C000B3C8608B288AC63FFB799F501344D33F11
:1036D0000000F07F0F270000DA610000D1610000D8
:1036E000A96100000000F03F01FCFFFFEFFBFFFFBE
:1036F000120400000EFCFFFFEEFBFFFF000010FEB7
:10370000E8610000B0620000069C02256742002FBD
:103710001AD00F233B40CC4ADB00D31814981599DC
:103720001A685B68FDF7A8FFC84E3F11002F09D04B
:10373000FA0704D5326873680135FDF79DFF7F10E5
:103740000836F3E704900591139C002C1ED0049ECC
:10375000059FB44BB24A301C391CFCF7B9FF002856
:1037600014D0089C002C11D00C9C002C00DCE3E051
:10377000069C301C013C391CAB4AAC4B1194FDF744
:103780007BFF0135049005910C9C02E0069C11948E
:10379000089C281C049E059F0E94FEF765FD321CB4
:1037A0003B1CFDF769FFA24AA24BFCF7D9FF041CA2
:1037B000A74808180E990490051C00291BD19E4AA1
:1037C0009E4B301C391CFEF7E7F9221C049B061C9B
:1037D0000F1CFCF791FF002800D05CE2221C802522
:1037E000049C2D06301C391C6319FCF771FF00285E
:1037F00000D047E2A0E00E9A934B013A1098D20015
:103800009B18002849D01A685B688D488D49FDF7E0
:10381000C9FA2B1C221CFEF7BFF9049005910B9DE1
:10382000391C301CFEF7ECFC041CFEF71DFD021CCD
:103830000B1C301C391CFEF7AFF901356B1E303400
:103840001C70049A059B061C0F1CFCF741FF002806
:1038500000D053E3321C3B1C72497148FEF79CF9BF
:10386000049A059BFCF734FF002800D0CBE00B9CAA
:103870002B1B0E9CA3425FDA049805996A4A6B4B96
:10388000FDF7FAFE684A694B04900591301C391C1B
:10389000FDF7F2FE061C0F1CC2E718685968221CCF
:1038A0002B1CFDF7E9FE0B9C0E9D049005916519FC
:1038B0001795391C301CFEF7A3FC051CFEF7D4FC41
:1038C000021C0B1C301C391CFEF766F930352570C4
:1038D000179D0134061C0F1CAC4226D10E980B9C80
:1038E000574A584B251804980599FCF739FF021CD4
:1038F0000B1C301C391CFCF7FFFE002800D082E0B6
:10390000049A059B4E484F49FEF746F9021C0B1CD2
:10391000301C391CFCF7DCFE00280DD06B1E1A7819
:10392000302A00D0EAE21D1CF8E73F4A3F4BFDF782
:10393000A3FE061C0F1CBCE7149C159D0494059562
:10394000199B002B00DA9FE0069D0E2D00DD9BE009
:103950003D4AEB00D3181C685D6802940395219DD5
:10396000002D14DA089C002C11DC00D08CE1324AC6
:10397000324B02980399FDF77FFE049A059BFCF7F2
:10398000C5FE089F3E1C002800D07FE187E10B9D0B
:10399000049E059F029A039B301C391CFDF702FA16
:1039A000FEF72EFC041CFEF75FFC029A039BFDF75A
:1039B00063FE021C0B1C301C391CFEF7EDF80135B0
:1039C000021C201C30300B1C691E08700B98291A31
:1039D0000898814248D1101C191CFCF7C1FE029ABC
:1039E000039B061C0F1CFCF787FE00280DD1301C22
:1039F000391C029A039BFCF765FE002800D17FE288
:103A0000E10702D47CE2119C06946B1E1A78392AD5
:103A100026D10B9CA3421DD01D1CF6E7C046C04614
:103A2000000000000000F03F000000000000244003
:103A30000000000000001C400000000000001440D6
:103A4000000000000000E03FE8610000B0620000FC
:103A50000000C0FC069C3022013406940B9C2270AE
:103A60001A7801321A704BE2101C191CC94BC84A53
:103A7000FDF702FEC84AC94B061C0F1CFCF722FECC
:103A8000002800D186E73BE2109D002D31D0209C1C
:103A9000012C0BDC169D002D02D0C1481B1802E042
:103AA000189936235B1A0D9D029C16E0089D0D9C0B
:103AB000013DAC4201DB651B06E00D9C0D952B1B07
:103AC000129C0025E4181294089C002C03DA02983A
:103AD0000023041B01E0029C089B0299099AC91863
:103AE0000291D21807980121099200F050FB061CA0
:103AF00002E00D9D029C109E002C0CD0099B002B17
:103B000009DDA34200DD231C02980999C01AC91AD5
:103B10000290E41A09910D9A002A21DD109B002BD6
:103B200018D0002D10DD311C2A1C079800F0C8FBAE
:103B3000061C311C0A9A079800F032FB0A99071CF0
:103B4000079800F044FA0A970D98421B08D007988E
:103B50000A9902E007980A990D9A00F0B1FB0A90C1
:103B60000798012100F013FB129D071C002D05DDB5
:103B7000391C07982A1C00F0A3FB071C209800257D
:103B8000012810DC0499A9420DD1059A1303AB4218
:103B900009D1844B134206D0029D01350295099D3F
:103BA00001350995012512990120002908D03B69AA
:103BB00003339B00FB18586800F0A0FA2023181A62
:103BC000099A1F23801818400DD020231B1A042B9C
:103BD00006DD1C23181A029B24181B18029308E008
:103BE000042B08D0181C02991C300918099A02915C
:103BF000241812180992029B002B05DD07980A99D8
:103C00001A1C00F0AFFB0A900998002805DD391C4A
:103C10000798099A00F0A6FB071C139900291BD0EE
:103C20000A98391C00F0F0FB002815DA069A0023E8
:103C3000013A069207980A990A2200F0E1F90C9BD2
:103C40000A9010980893002806D0311C07980A2281
:103C5000002300F0D5F9061C089900292ADC209AD7
:103C6000022A27DD002911D1391C07980522089B5B
:103C700000F0C6F9071C391C0A9800F0C5FB0028A3
:103C80000DDC03E00E9F00E000273E1C219C0B9DF5
:103C9000E44306940BE0119D0E9F06953E1C0B9C81
:103CA00031232370069C0B9D013401350694029646
:103CB00000260FE11098002800D1C5E0002C05DD9A
:103CC000311C0798221C00F04DFB061C0296002DAB
:103CD00012D07168079800F042F93269311C023243
:103CE000041C92000C310C3000F030F90798211CB4
:103CF000012200F037FB02900B9C089D231C013B26
:103D00005B1909941093391C0A98FFF7A7FA311C24
:103D10000D90041C0A9800F077FB391C0C90029A55
:103D2000079800F08CFB051CC0683034002805D1D2
:103D30000A98291C00F068FB089001E00121089115
:103D4000291C079800F043F9089B209D2B430DD1B7
:103D500004980123034209D1392C44D00C9D002D35
:103D600001DD0D9C3134099D013544E00C9D002D91
:103D700003DA089D002D17DC28E00C9B209D2B43C7
:103D800029D104980123034225D1F2E7C046C04659
:103D900000000000000024400000000000000000BF
:103DA000330400000000F07F0A990798012200F018
:103DB000D9FA391C0A9000F027FB002802DC05D153
:103DC000E10703D5392C0ED00D9C3134099D099A99
:103DD000013514707EE0099D01350C95089D002D7C
:103DE0000CDD392C05D1099D099C3923013523703F
:103DF0005BE00C9D0134099804706BE00999109AFE
:103E00000C9D0C7091423DD00A990A22002307981C
:103E100000F0F6F8029C0A90311C07980A22002351
:103E2000A64204D100F0ECF8061C029009E000F074
:103E3000E7F80299061C0A220798002300F0E0F830
:103E400002900C9D09955EE70B9D391C0A98FFF7BF
:103E500005FA041C30340B9808992C7001352B1A84
:103E60008B4207DB0B1E00DC01230B9A0296D51850
:103E7000002607E007980A990A22002300F0C0F8FC
:103E80000A90E2E70A990798012200F06BFA391CC0
:103E90000A9000F0B9FA002807DC15D1E30704D432
:103EA00012E00B9CA34205D01D1C6B1E1A78392A08
:103EB000F7D006E0069C3123013406940B9C237056
:103EC00008E001321A7005E06B1E1A78302A01D121
:103ED0001D1CF9E70798391C00F079F8029C002CAA
:103EE0000ED0002E05D0A64203D00798311C00F05A
:103EF0006EF80798029900F06AF801E0119C0694A8
:103F000007980A9900F063F800232B70069B229C07
:103F100001332360249C002C03D0256001E002487B
:103F200000E00B981BB0F0BDA8610000C046C04681
:103F30000048704764FCFF1F08B5034B011C18685C
:103F400000F062FC08BDC04660FCFF1F10B50023F6
:103F5000934203D0CC5CC4540133F9E710BD70B573
:103F6000456A041C0E1C002D07D11020FFF7E4FF4A
:103F70006062456085600560C560656AEB68002B1E
:103F800009D0636AB200DB689A18106800280ED066
:103F90000368136017E0201C0421212200F0DEFBDF
:103FA000636AE860DB68002BEBD100200EE00121A2
:103FB0000D1CB5406A1D9200201C00F0CFFB0028AC
:103FC000F3D04660856000220261C26070BD70B5AA
:103FD000446A061C0D1C002C07D11020FFF7ACFF13
:103FE0007062446084600460C460002D07D0726A0F
:103FF0006968D2688B00D3181A682A601D6070BD8A
:10400000F7B50C1C1E1C0D69071C14310023086831
:10401000013380B2504380198446060C0868000CB6
:1040200050433018060C00040190604680B284466C
:1040300001988444604601C1AB42E8DB002E1BD0EE
:10404000A3689D4212DB6168381C0131FFF787FFCE
:104050002269211C023201900C3192000C30FFF7D2
:1040600075FF211C381CFFF7B2FF019C2B1D9B0024
:10407000E31801355E602561201CFEBDF7B5061C06
:10408000181C0F1C083009210193141CFCF7AAFA14
:1040900001230021984202DD5B000131FAE7301C68
:1040A000FFF75DFF089B011C436101230361092C9D
:1040B00012DD3B1C093300931D1C3F192B78301C6B
:1040C000303B0A22FFF79CFF0135011CBD42F5D1B0
:1040D000009B1F19083F01E00A370924251C019B9A
:1040E0009D4209DA3B1B5B5D301C303B0A22FFF727
:1040F00087FF0135011CF2E7081CFEBD0022031CEE
:10410000010C914201D103041022190E01D1083291
:104110001B02190F01D104321B01990F01D1023288
:104120009B00002B04DB2020590002D5501C00E02E
:10413000101C704703680722011C1A400BD0012293
:104140000020134222D10220034201D0D3401BE0C1
:104150009B080B601AE098B2002801D11B0C1022BA
:10416000D8B2002801D108321B0A180701D1043245
:104170001B09980701D102329B08D80704D45B08B9
:104180002020002B02D001320B60101C704710B5AC
:104190000C1C0121FFF7E3FE01234461036110BD04
:1041A000F0B50C1C151C096912698BB0914202DA3A
:1041B000231C2C1C1D1C27692E69A268BB19616871
:1041C0000293934200DD0131FFF7C9FE031C039007
:1041D0000298143382009A18191C914202D20020CE
:1041E00001C1FAE714351434BF00AC46B600E71934
:1041F0006644049407970996099EB44556D26546CD
:104200002D880595002D1FD0049C191C00200F68D7
:1042100040CCBFB2059D0697B7B26F43069D360CE2
:10422000EF193F1808680891050C05984643380CAB
:10423000AD192D18280CBFB22D043D4320C1079D98
:10424000AC42E4D3089E706067467D88002D22D082
:1042500000261868049C191C0196278880B26F43B9
:104260000697069E4F880591F619019FF719069744
:104270003F043843086001CC8F88000C6843C019A4
:10428000069F04313E0C8019079F060C0196A74239
:10429000E3D8059948600425AC445B19ACE7043ABF
:1042A0001068002805D1029F013F0297029D002D52
:1042B000F5DC039F029E381C3E610BB0F0BD000090
:1042C0000323F7B51340051C0E1C141C002B07D04C
:1042D000224A013B9B009A580023FFF791FE061CDF
:1042E000A410019437D06C6A002C07D11020FFF77E
:1042F00023FE6862446084600460C4606F6ABC68C6
:10430000002C10D1281C1649FFF741FF0023B8608C
:10431000041C036007E0019B5B1001931BD0206825
:1043200000280FD0041C019BDB07F4D5311C221C94
:10433000281CFFF735FF311C071C281CFFF747FE20
:104340003E1CE8E7281C211C221CFFF729FF002344
:1043500020600360E6E7301CFEBDC046D862000066
:1043600071020000F0B50C1C85B003902069551156
:104370002818029049680130A368171C0090009A21
:104380009A4202DD01315B00F9E70398FFF7E7FD90
:10439000021C061C14320023AB4204DA99000020F0
:1043A00050500133F8E7EB43DB171D40AD002069A7
:1043B0005519221C143283009B189C461F231F4052
:1043C00014D02023DB1B019300231068291CB84064
:1043D000034308C508CA0198C3409445F5D84B600B
:1043E000002B07D002990231009103E008CA08C5EA
:1043F0009445FBD8009B0398013B3361211CFFF7D8
:10440000E6FD301C05B0F0BD10B502690C69031C57
:10441000101B13D11A1CA0001432143113180918E0
:10442000043B04391C680868844204D084428041FB
:104430000123184302E09342F2D8002010BDF0B5EA
:10444000071C85B0081C0D1C111C141CFFF7DCFF99
:10445000061E07D1381C311CFFF781FD01230361C3
:10446000466150E0002801DB002603E02B1C0126FA
:10447000251C1C1C6968381CFFF771FD2A692B1C60
:1044800014339100591802912169251C14358900B3
:104490006918041C0391C6601434002140CB80CD00
:1044A000B446B6B27118BEB28E1B614601963F0C7F
:1044B0000E0CF71B019E043431147F1839143F048D
:1044C0000097019F261FB446BEB2009F3743664641
:1044D0003760039FBD42E1D3029E251CB3420BD23D
:1044E00080CBBDB26D182E143F0CF6193114ADB24D
:1044F0003604354320C4EFE7043D2F68002F01D177
:10450000013AF9E7026105B0F0BD00000E4B0F4A19
:104510000B409B1810B5002B01DD191C09E05B4214
:104520001B1500200021132B05DC80221203111C17
:104530001941002006E00122322B02DC3324E31A69
:104540009A40101C10BDC0460000F07F0000C0FC67
:104550000369F7B5061C14369B00F3181C1C043CB9
:1045600025680F1C281C0193FFF7C8FD20231B1A88
:104570003B601F490A2813DC0B231B1A2F1CDF404A
:104580009C460B1C3B430021B44202D901990839D7
:1045900009686446E140153085400A1C2A4322E040
:1045A0000027B44202D9019C083C27680B235B42D8
:1045B0001B189C46002B13D02B23181A63469D40D2
:1045C00029433D1C0B1CC5402B430021B44201D99B
:1045D000043C2168C1406446A7400A1C3A4302E0FB
:1045E0000B1C2B433A1C101C191C03B0F0BDC04619
:1045F0000000F03FF7B501211D1C141CFFF7AFFCB4
:104600006F002B03061C1B0B7F0D02D08022520370
:1046100013430193002C19D068460094FFF78AFDDC
:10462000009A002809D0019B20211C1C091A8C40EB
:104630002243C3407261019300E07261019CB46146
:10464000634263410224E41A346107E001A8FFF7E2
:1046500071FD01990124716134612030002F09D06E
:104660000D4A089CBF183F1827603523099C181A6B
:1046700020600EE00949089A401809491060631843
:104680009B00F3185869FFF739FD6401099A241A51
:104690001460301CFEBDC046CDFBFFFFCEFBFFFF0C
:1046A000FFFFFF3FF7B50E1C6946071CFFF750FFE1
:1046B000041C0D1C301C01A9FFF74AFF021C0B1C37
:1046C000009801993F69401A31698446791A490175
:1046D0006144002902DD09054D1901E009055B1A55
:1046E000201C291CFCF75EFB03B0F0BD013910B59E
:1046F000131C4911126901318900143392004118C9
:104700009A18934202D210CB10C0FAE7884202D224
:10471000002308C0FAE710BD021C006910B514326E
:104720004B1183420DDC0DDA1F2001400AD09800A6
:104730008458201CC8408840011C0120A1420CD193
:1047400000E0031C9B00D318934205D9043B196871
:104750000029F9D0012000E0002010BD38B5151C5B
:104760004D43291C00F050F8041E03D000212A1CE0
:10477000FDF726FF201C38BD30B5002940D0043994
:104780000B68002B00DAC9181E4A1368141C002B92
:1047900002D14B60116033E099420FD208680A18C9
:1047A0009A4205D113685268C01808604A6000E058
:1047B0004B60216024E08A4203D8131C5A68002A07
:1047C000F9D11D685C198C420BD109686918581819
:1047D0001960904214D114685268091919605A601E
:1047E0000EE08C4202D90C23036009E008680C1823
:1047F000944203D114685268001908604A605960F5
:1048000030BDC046C4FCFF1F70B50323CD1C9D43C3
:104810000835061C0C2D01D20C2501E0002D3FDBD4
:104820008D423DD3204B1C681A1C211C002913D03B
:104830000868431B0DD40B2B02D90B60CC181EE06B
:104840008C4202D1636813601AE0486860600C1CF7
:1048500016E00C1C4968E9E7144C2068002803D1D5
:10486000301C00F04FF82060301C291C00F04AF882
:10487000431C15D0C41C03239C4384420AD12560E9
:10488000201C0B300722231D9043C31A0BD05A4221
:10489000E25008E0211A301C00F034F80130EED16B
:1048A0000C233360002070BDC4FCFF1FC0FCFF1F41
:1048B00030B50B1C041C021C1C430220002C17D01A
:1048C00080242406A34201D1002A11D009485900AE
:1048D0004908094C0D180420A54209D9074C0320AA
:1048E000A14205D9064C0020A14201D150425041BD
:1048F00030BDC0460000F0FFFFFFDF7FFFFF0F006D
:104900000000F07F38B5074C0023051C081C23600D
:1049100001F0E2FB431C03D12368002B00D02B6085
:1049200038BDC046CCFCFF1F004870470000C07F68
:104930000EB400B59CB01DAB04CB822202A992003C
:104940008A810A4A02908A604A6101225242CA81DF
:10495000074A086110681D9A019300F04FFF029A00
:10496000002313701CB008BC03B01847FFFFFF7F83
:1049700060FCFF1F0023C25C0133002AFBD1581EDC
:10498000704730B502680C780132002C0AD01378D9
:104990001D1C413D192D00D820330131A342F2D016
:1049A000002001E00260012030BD000070B5161C3F
:1049B0000D1CFFF7ABFD002E0BD06B005B0D6B22C7
:1049C000D31A002B05DD034D1C0563190022FCF7EB
:1049D00053FE70BD0000F03FF0B5BE4FBC4EA1B01D
:1049E000002308900A9119921C931B911B9A13782B
:1049F0000D2B05D8092B15D2002B00D1C1E114E0F5
:104A00002B2B07D02D2B02D0202B0ED10AE0012416
:104A1000169401E000251695531C1B935378002B28
:104A200005D1AEE101321B92E0E7002416941B9DF4
:104A300000242B780D94302B5AD16B78582B01D051
:104A4000782B49D1169C1CAB0093019408981BA9A4
:104A5000A14A1DAB01F00DF807240790044001D1D5
:104A600000F0B0FD062C02D101351B958BE11C9A9C
:104A7000002A07D01EA83521FFF738FE08981C9998
:104A8000FFF7A5FA1D9B062C1CD8201CFBF7A0FDE8
:104A9000040A0714170A040000273E1C12E01E9E99
:104AA0001F9F0FE08D488E4A1B181F991B050A4057
:104AB0001F1C1E9E174305E08A4F002602E00123BB
:104AC000894F5E42079C240701D400F07BFD8023C0
:104AD0001B061F4300F076FD1B9B5A1C1B925B7844
:104AE000302BF9D0002B01D100F06CFD01250D9584
:104AF0001B9C002510940B950E9509951B9C257801
:104B00002B1C303BDAB2092A12D8099D0A22082D43
:104B100004DC0E9D6A439B180E9303E00B9D6A43D1
:104B20009B180B93099D0134013509951B94E5E70A
:104B30000898FFF7FDF9006807900898FFF7F8F963
:104B40000068FFF717FF0799021C201C01F0A4FA68
:104B5000041E06D0099C00202B1C079484460C9050
:104B600063E008981B9DFFF7E3F90068FFF702FF79
:104B70002D181B952B78099D281E48D1302B05D167
:104B80001B9B01305A1C1B925B78F7E71A1C313AC9
:104B9000082A45D81B9C8446002010940790303B7F
:104BA000421C002B2DD007999444079D01314C1BCA
:104BB00094420EDA4C1E082C04DC0E9D0A24654338
:104BC0000E95F2E71029F0DC0B9D0A2465430B9546
:104BD000EBE7C243D21710402818441C079408285A
:104BE00006DC0E9D0A226A43D2180E92002208E0CB
:104BF000079C0022102C04DC0B9D0A216943C91874
:104C00000B911B9B101C591C1B915B7803E0099DA9
:104C1000201C0795A4461A1C303A092ABFD902E085
:104C200000240794A44601210C912022191C9143D1
:104C3000002245295FD1079B0D9C034323439342E8
:104C400000D19EE01B9D2B1C01331B936B780A95B2
:104C50002B2B03D02D2B03D0119208E0119201E0F1
:104C6000012111910A9B0A9C02331B93A3781A1C01
:104C7000303A092A3CD8302B04D11B9B5A1C1B927A
:104C80005B78F8E71C1C313C0022082C33D81D1C33
:104C90001B99303D1B9B5A1C1B925B781C1C303CA3
:104CA000092C04D80A225543ED18303DF2E7521A78
:104CB0000F920E4C0F99221C082903DC2A1EA242D7
:104CC00000DD221C119C002C15D0524213E0C0467E
:104CD000000000000000000010630000330400002A
:104CE000FFFFEFFF0000F07FFFFFFF7F1F4E000080
:104CF0000A9D00221B95079C002C48D10D9D28433E
:104D000001D000F05FFC0C9800283AD14E2B1CD04B
:104D100002DC492B05D034E0692B02D06E2B14D075
:104D20002FE01BA8A849FFF72CFE002829D01B9BC9
:104D30001BA8013BA5491B93FFF723FE002802D1C6
:104D40001B9B01331B93A24F18E01BA8A149FFF73F
:104D500018FE002815D01B990B78282B0DD11BA805
:104D60009D491EAA01F0B5F8052806D1984A1F9B57
:104D7000171C1F431E9E00F025FC984F002600F0D4
:104D800021FC0A9C1B940025169500F01BFC644630
:104D9000099D141B0A94002D01D1079C0994079CBE
:104DA000102C00DD10240E98FDF79CFA061C0F1C39
:104DB000092C15DD231C8A4A093BDB00D3181A682D
:104DC0005B68FCF759FC061C0B980F1CFDF78AFA70
:104DD000021C0B1C301C391CFBF7C2FC061C0F1CF0
:104DE000079D0F2D3ADC0A9D002D01D100F0EAFB52
:104DF00026DD162D07DC7A4BEA009A1810685168F8
:104E00003B1C321C17E0079D25235B1B0A9D9D421E
:104E100024DC079C0F22151B714CEB00E31818686B
:104E20005968321C3B1CFCF727FC0A9A571BFF00F1
:104E3000E41922686368FCF71FFC061C0F1CC1E321
:104E40000A9D16350ADB0A9C654BE2009A1A301C53
:104E5000391C53681268FBF7A5FFEEE7079D2C1B72
:104E60000A9D2C19002C56DD0F2323400AD05C4AE2
:104E7000DB00D31818685968321C3B1CFCF7FCFB9C
:104E8000061C0F1C0F239C4300D1B7E09A235B0044
:104E90009C420EDD00240794099410940E94089D02
:104EA000109C222300262B60494FB44200D075E3AA
:104EB00088E32411301C391C0025012C0BDDE2078E
:104EC00006D5484BEA00D3181A685B68FCF7D4FB98
:104ED00001356410F1E7444BED00CF18414B061C3F
:104EE0005D19321C3B1C28686968FCF7C5FB384B10
:104EF0000F1C0B403D49061C8B42CBD83C498B42D2
:104F000003D901233B4F5E4202E0D425AD047F1953
:104F100000240B9474E0002C70D064420F232340D3
:104F20000AD02F4ADB00D318301C391C1A685B6882
:104F3000FBF738FF061C0F1C24115FD01F2C05DD6A
:104F400000250795099510950E9521E1E3066A2540
:104F5000DB171D400B95284D301C391C002C08DD3B
:104F6000E20703D52A686B68FCF786FB64100835F6
:104F7000F4E70B9C061C0F1C002C17D04B005B0D9C
:104F80006B21CB1A002B11DD1F2B0BDD0026342BE0
:104F900002DDDC239F0409E00121203B49429940C6
:104FA0000F4003E0012252429A401640301C391C47
:104FB000044B034AFBF786FB0028C1D120E0C04622
:104FC00000000000000000009D610000D4610000AE
:104FD0000000F07FA5610000246300000000F8FFDE
:104FE000E8610000B06200000000B0FC0000A07C9E
:104FF0000000907CFFFFEF7FE862000000250B952A
:105000000E9C089800941099099A079BFFF736F8B0
:105010001090002800D13DE70A9D00246B42EA175A
:105020001340179307940994109D08986D68291CE4
:105030000695FEF794FF0E90002800D12FE71098F8
:10504000109900690C31021C0E98023292000C304B
:10505000FEF77CFF1DAB00931EAB01930898321C3A
:105060003B1C12961397FFF7C5FA1C90002800D13D
:1050700015E708980121FFF78AF80990002800D168
:105080000DE70A9D00240D94AC4200DA0D951D9B9E
:10509000002B00DA86E0179D0D99EC180B9D1E98E9
:1050A0005B1B36251A182D1AC7480123824200DBE4
:1050B00082E0801A2D1A1F2878DC83400020189384
:1050C00011900B9863194D190C932D18A34200DD14
:1050D000231CAB4200DD2B1C002B04DD0C99ED1AC8
:1050E000C91A0C91E41A179A002A69D10C98002861
:1050F0007EDC0D99002900D084E0002D00DD8BE0DE
:10510000002C00DD92E008981C990E9AFFF797F9A1
:105110000790002800D1C2E6C4680025C56009993F
:105120000F94FFF771F9A84200DB8EE0AC4200D08B
:105130001FE2AE4200D01CE23B03AB4200D018E2BB
:10514000A24AD6233A40DB049A4200D811E20798DB
:105150004069A84274D0079908980122FFF702F924
:1051600009990790FFF750F9002800DC01E20B9C39
:10517000964B002C00D199E01A1CD6213A40C90464
:105180008A4200D992E0DC239B049A4200D9F3E1E1
:10519000089D109C2223834F814E2B60002C00D051
:1051A000FCE10FE20D9CE11A179C77E78848821A10
:1051B000181C9040119001E000221192189380E792
:1051C00008980999FFF77CF80990002800D166E655
:1051D000089809991C9AFEF7E3FF0F90002800D168
:1051E0005DE608981C99FEF7F2FE0F9B1C937DE785
:1051F00008981C990C9AFFF7B5F81C90002800D06D
:1052000077E74CE608980E990D9AFFF759F80E903B
:10521000002800D071E742E608980E992A1CFFF793
:10522000A1F80E90002800D06AE738E6089809999E
:10523000221CFFF797F80990002800D063E72EE6BC
:1052400007990969012986DC93E1002865D10F9C43
:105250003A03002C25D05F493B1C120B8A422ED109
:1052600001210B9D4942301C0A1C002D0AD0574CCD
:10527000D4253C40ED04AC4204D8240D6B22121B13
:1052800091400A1C90421AD1534A934202D10130F4
:1052900000D104E64D4A8020134040031F18002629
:1052A00067E1002A0BD1002E09D160E74B4D494A36
:1052B0003B405B19171C1F4301235E4259E1119CBF
:1052C000002C03D03C4200D153E103E0189D35424D
:1052D00000D14EE10F9C301C391C0B9A002C0AD0D7
:1052E000FFF764FB021C0B1C12981399FBF738FAAA
:1052F000061C0F1C3DE1FFF759FB021C0B1C12980A
:105300001399FCF749FC274B254A061C0F1CFBF799
:10531000D9F9002800D03BE72BE107980999FFF75E
:10532000C1F9214A214B041C0D1CFBF7DBF90028B5
:105330005AD00F98002806D0294A00211C4C1D4D38
:105340000C910D9261E0002E02D13B0305D10BE0E0
:10535000012E02D1002F00D11AE721480023164C5C
:10536000164D0C930D9050E0201C291C104A114B37
:10537000FBF7AEF9002808D1201C291C104A114B5C
:10538000FCF77AF90C900D9103E00F9C154D0C94ED
:105390000D950D98802109060C9C451835E0C046F6
:1053A00000000000000000000000000000000040BD
:1053B000000000000000F03F000000000000F0BF0F
:1053C000000000000000E03F03FCFFFF0000F07F52
:1053D000E3FBFFFFFFFF0F00FFFFEF7F0000F0FF89
:1053E0000000F03F0000E03F201C804B7E4A291C5B
:1053F000FCF742F90F9C0C900D910B1C002C02D174
:1054000080252D064B190C9C1D1C8148814B384072
:10541000119098422BD11299139A149115927E4AA9
:10542000301CBF18391CFFF771F8021C0B1C201C24
:10543000291CFCF721F9021C0B1C301C391CFBF742
:105440008FF9734A754B061C0A409A420BD9744B6C
:10545000159C9C4203D1149D013500D11FE5012309
:105460006F4F5E4274E0D42080040F183AE00B992D
:10547000002925D0119AD423DB049A4220D80C9815
:105480000D995B4A5B4BFBF72DF9002813D00C9864
:105490000D99FBF745F9002800D10120FCF722FF08
:1054A0000F9C0C900D910B1C002C02D180252D0619
:1054B0004B190C9C1D1CD620C00411992B185D1A89
:1054C00012981399FFF722F8021C0B1C201C291CB0
:1054D000FCF7D2F8021C0B1C12981399FBF740F949
:1054E000061C0F1C0B9C1297002C31D1484B119DB0
:1054F0003B409D422CD10D990C98FCF781FEFCF7A6
:10550000B3FE021C0B1C0C980D99FCF745FB041C08
:105510000F980D1C002804D1002E02D112990B0304
:105520000ED0201C291C344A344BFBF7D1F800283C
:1055300034D1201C291C324A324BFBF7DDF805E040
:10554000201C291C304A314BFBF7C2F8002825D11A
:1055500008981C99FEF73BFD08980E99FEF737FD59
:1055600008980999FEF733FD08980799FEF72FFD73
:105570005AE50B9C002C11D02A4D00201490159553
:10558000301C391C149A159BFCF776F8061C0F1C6E
:1055900004D1002802D1089C2223236008981C997A
:1055A000FEF715FD08980E99FEF711FD0898099968
:1055B000FEF70DFD08981099FEF709FD0898079968
:1055C000FEF705FD199D002D01D01B982860169C43
:1055D000321C3B1C002C02D080252D067B19101C90
:1055E000191C21B0F0BDC046000000000000E03FE3
:1055F0000000C0FFFFFFDF419535A094FFFFDF3FB4
:1056000035E5AF350000E03F9535A094FFFFCF3F73
:105610000000F07F0000E07F0000B0FCFFFF9F7CF7
:10562000FFFFEF7F00005039F0B51D1C424B87B0E3
:105630001B6805900293039101920B1C1C78029F3A
:105640005E1C3A19517808220A4001D0331CF5E754
:105650002D2C04D101279E1C5C78009704E0009259
:105660002B2C01D15C789E1C10232A1C9A4311D14B
:10567000302C08D1327820218A43582A07D17478F7
:105680001D1C023606E0002D04D10A2502E0002D83
:1056900000D10825009F291C7B427B4180273F06C3
:1056A000FF1A381CFAF788FF381C0491291CFAF7F6
:1056B0003FFF0023021C181C029F391949784F072D
:1056C00001D5303C07E003270F4017D05721012FA9
:1056D00000D13721641AAC4210DA591C0BD0904229
:1056E00007D802D1049FBC4203DC68430123201881
:1056F00001E001235B4234780136DDE7009F591C4D
:105700000BD180207B427B410006059FC01A2223DB
:105710003B60019F002F09D10BE0002F00D04042D9
:10572000019F002F05D0039A002B00D0721E019F0D
:105730003A6007B0F0BDC0469CFCFF1FF0B58D6815
:1057400085B0071C0C1C03920193AB4245D39022F9
:105750008B89D20013423DD0626903265643096902
:105760002068F20F401A96190290021C019801322B
:1057700012187610964200D2161C381C5A050FD506
:10578000311CFFF741F8051E13D0029A2169FEF77C
:10579000DDFBA289184B134080221343A38111E043
:1057A000321C00F053FC051E0CD1381C2169FEF799
:1057B000E3FF0C233B60A389402213430120A38114
:1057C000404217E0029B2561ED1825606661019D4E
:1057D000F61AA6600198A84200D2019D2A1C2068F2
:1057E000039900F01AFCA2680020531BA3602368F1
:1057F0005D19256005B0F0BD7FFBFFFFF0B59FB0E0
:10580000039005938B890E1C171C19060FD532695E
:10581000002A0CD14021FEF7F7FF306030610028EC
:1058200003D103990C230B60C9E04023736106ADDB
:1058300000236B6120236B763023AB763C1C2378EE
:10584000002B03D1E21B029211D003E0252BF9D0EB
:105850000134F4E70398311C3A1C029BFFF76EFFFA
:10586000013000D1A6E06969029A8B186B61237838
:10587000002B00D19EE0012252426A606A4600235A
:105880005B3201342B60EB60AB601370AB654E4F45
:105890002178381C052200F0B5FB002807D0C71B73
:1058A0002B680120B840184328600134EFE72B68CB
:1058B000D90603D56A4620215B3211701A0703D539
:1058C0006A462B215B32117022782A2A01D0099B6B
:1058D0000EE0059A111D12680591002A01DB09925C
:1058E00004E05242EA60022213432B60013409E0D3
:1058F0002278303A092A04D80A214B4301349B18F4
:10590000F6E7099323782E2B18D163782A2B09D137
:10591000059B02341A1D1B680592002B0DDA01232A
:105920005B420AE0013400232278303A092A04D885
:105930000A214B4301349B18F6E70793234F217844
:10594000381C032200F05EFB002806D0C71B2B6822
:105950004020B84018432860013421781C480622B2
:10596000671C297600F04EFB002812D0194B002B43
:1059700006D1059B0722073393430833059314E0B0
:1059800005AB00930398291C321C134BFCF7C0FE97
:1059900007E005AB00930398291C321C0E4BFDF762
:1059A00057F904900499013104D06A690499531895
:1059B0006B6143E7B3895A0601D40B9801E00120DB
:1059C00040421FB0F0BDC046386300003E63000097
:1059D00042630000112700003D570000F7B5031C8B
:1059E000066914334C111A1CB44227DAB6009E190A
:1059F000A4001F2201961C19114001D1191C16E0A8
:105A0000202220CC521A9446CD401F1C019E3A1CE5
:105A1000B44207D222686646B240154320C720CC64
:105A2000CD40F3E73D60002D08D0043206E0019D33
:105A30000A1CAC4202D204CC04C1F8E7D31A9B1072
:105A4000036100D14361F7BD021C303A031C092AEF
:105A500001D8203B0BE0021C613A052A01D8473BE4
:105A600005E01A1C413A0020052A01D8273BD8B28C
:105A70007047F0B58FB006920C930A910890FEF72C
:105A800057FA00680B90FEF775FF0B9D07902B18D7
:105A90000A9D013B1B782A680D93931C0593059D75
:105AA000991A28780239099101333028F6D0FFF786
:105AB000CBFF061E1FD105980B99079A00F0ECFA50
:105AC00000283BD107982F183878FFF7BDFF002832
:105AD00037D00597059D2878302803D1059D0135DD
:105AE0000595F7E7FFF7B0FF4542454103950125CE
:105AF0003E1C099502E0002503952E1C059F387871
:105B0000FFF7A2FF002801D00137F8E7381C0B99F6
:105B1000079A00F0C1FA00280BD1002E0BD1079D87
:105B20007F193E1C3878FFF78FFF002801D001371E
:105B3000F8E7002E09D0F61BB60006E0059F049694
:105B400000E004900125039500E004963B78502B7B
:105B500001D0702B27D17B782B2B04D02D2B04D098
:105B60007C1C002603E0002600E00126BC1C2078F7
:105B7000FFF76AFF431EDBB2051C182B13D8013454
:105B80002078FFF761FF431EDBB2103D182B03D8CE
:105B90000A235D432D18F2E7002E00D06D420498D1
:105BA0004019049000E03C1C0A9D2C60039D002DD0
:105BB00006D0099D06206B426B415B42184074E1A0
:105BC000059D03997B1B013B072B02DD01315B1017
:105BD000FAE70898FEF7C3F9051C143503950995F3
:105BE0000025041C2E1C059A974227D9013F3B78BB
:105BF0000D980A97834208D0202E14D10998056089
:105C00000430002509902E1C0DE00A99079A059B87
:105C10008F1A01379F42EFD3381C0B9900F03CFAE2
:105C20000028E0D0E8E70A990878FFF70DFF0F2376
:105C30001840B040054304360A9FD4E7099E039BF1
:105C400020C6F61AB6102661281CFEF757FA069DE4
:105C500076012F68361ABE4227DDF61B201C311C48
:105C6000FEF75AFD0025A84217D0731E1F220125FA
:105C70001A40281C90405911021C039889000958A9
:105C800011420AD0AB4201DC022506E0B11E201C05
:105C9000FEF742FD0028F7D00325311C201CFFF73A
:105CA0009DFE0499891904910FE00025BE420CDA8B
:105CB000BE1B211C321C0898FEF754FB049A031CDF
:105CC000921B1433041C0492039306980499806871
:105CD000814208DD0898211CFEF779F9149D002304
:105CE0002B60A320E1E0069804994668B14254DA9B
:105CF000761ABE422DDBC368022B1AD0032B1CD0B0
:105D0000012B1DD1BE421BD1012F0BDC069A0C9D2D
:105D1000526801232A60039D23612B60149D622039
:105D20002C60C2E0791E201CFEF7F6FC0028EDD1A5
:105D300006E0159D002DE9D002E0159D002DE5D16E
:105D40000898211CFEF743F9149D00232B60502076
:105D5000ABE0701E0490002D07D1002806DD201C4A
:105D60000499FEF7D9FC051C00E00125049903986D
:105D70004B111F229B0011401B5801228A401342E5
:105D800001D002231D43311C201CFFF727FE06997A
:105D9000BF1B49680226049100E00126002D7ED039
:105DA000069AD368022B0BD0032B0DD0012B74D194
:105DB000A80772D503990A6815431D4207D16CE004
:105DC000159D01235D1B1595159D002D65D0256939
:105DD000231CA8001433059019181A68501C02D00F
:105DE00001321A6021E0002204C39942F5D8A1686B
:105DF0008D4212DB616808980131FEF7B0F8226924
:105E0000211C023203900C3192000C30FEF79EF8F8
:105E1000211C0898FEF7DBF8039C23695A1C043305
